:1000000059C0000067C0000065C0000063C0000068
:1000100061C000005FC000005DC000005BC0000068
:1000200059C0000013C1000055C0000053C00000BB
:1000300051C000004FC000004DC00000CFC0000004
:1000400049C0000047C0000045C0000043C0000098
:1000500041C000003FC000003DC000003BC00000A8
:1000600039C0000037C0000035C0000033C00000B8
:1000700031C000002FC000002DC000002BC00000C8
:1000800029C0000027C0000025C0000075007A00CC
:100090007E00830088008D00920097009B00A000E6
:1000A000AF00B400B800BD00C200C700CC00D10052
:1000B000D500DA0011241FBECFEFD0E1DEBFCDBFE7
:1000C00021E0A0E0B1E001C01D92A630B207E1F747
:1000D00076D03EC195CF6AE070E00AD18A309105B2
:1000E00098F5FC01EA5BFF4F16C187E083B98CE409
:1000F00088BB089585E083B918BA089583E083B971
:100100008CE288BB089587E083B988E288BB0895B4
:1001100085E083B980E688BB089586E083B988E6E8
:1001200088BB089586E083B98CE688BB089587E094
:1001300083B918BA089587E083B98CE688BB08951F
:1001400087E083B988E688BB08956AE070E0D0D084
:100150006A30710598F5FB01E05BFF4FDCC087E07A
:1001600083B98CE488BB089585E083B918BA0895F3
:1001700083E083B98CE288BB089587E083B988E285
:1001800088BB089585E083B980E688BB089586E042
:1001900083B988E688BB089586E083B98CE688BB7E
:1001A000089587E083B918BA089587E083B98CE68B
:1001B00088BB089587E083B988E688BB089587ECFB
:1001C00082B98DE687BB82E887BF8FE083BF87E077
:1001D00081BF9DE095BD83BD7894FFCF1F920F92A4
:1001E0000FB60F9211242F938F939F938091040148
:1001F00090910501019690930501809304018091EF
:10020000040190910501803D974069F480910201BD
:100210009091030101969093030180930201109243
:10022000050110920401809102019091030184362E
:10023000910521F410920301109202019F918F9178
:100240002F910F900FBE0F901F9018951F920F9235
:100250000FB60F9211240BB60F922F933F934F932B
:100260005F936F937F938F939F93AF93BF93EF931E
:10027000FF9383B18F7383B9809100019091010145
:10028000892B31F4809102019091030124DF1E9AA1
:100290008091000190910101019731F48091020158
:1002A0009091030152DF1F9A80910001909101010A
:1002B00001968230910529F090930101809300010D
:1002C00004C01092010110920001FF91EF91BF91C3
:1002D000AF919F918F917F916F915F914F913F91DE
:1002E0002F910F900BBE0F900FBE0F901F9018957F
:1002F00097FB072E16F4009406D077FD08D014D093
:1003000007FC05D03EF4909581959F4F0895709518
:1003100061957F4F0895EE0FFF1F0024001C0BBE58
:100320000790F691E02D0994AA1BBB1B51E107C071
:10033000AA1FBB1FA617B70710F0A61BB70B881F75
:10034000991F5A95A9F780959095BC01CD01089504
:04035000F894FFCF4F
:00000001FF
